{
  "_format": "hh-sol-artifact-1",
  "contractName": "DanceRoom",
  "sourceName": "contracts/DanceRoom.sol",
  "abi": [
    {
      "inputs": [],
      "stateMutability": "payable",
      "type": "constructor"
    },
    {
      "anonymous": false,
      "inputs": [
        {
          "indexed": true,
          "internalType": "address",
          "name": "from",
          "type": "address"
        },
        {
          "indexed": false,
          "internalType": "uint256",
          "name": "timestamp",
          "type": "uint256"
        },
        {
          "indexed": false,
          "internalType": "string",
          "name": "song",
          "type": "string"
        }
      ],
      "name": "abc",
      "type": "event"
    },
    {
      "anonymous": false,
      "inputs": [
        {
          "indexed": true,
          "internalType": "address",
          "name": "from",
          "type": "address"
        },
        {
          "indexed": false,
          "internalType": "string",
          "name": "message",
          "type": "string"
        },
        {
          "indexed": false,
          "internalType": "uint256",
          "name": "xmyShake",
          "type": "uint256"
        }
      ],
      "name": "xyz",
      "type": "event"
    },
    {
      "inputs": [],
      "name": "getAllDances",
      "outputs": [
        {
          "components": [
            {
              "internalType": "address",
              "name": "dancer",
              "type": "address"
            },
            {
              "internalType": "string",
              "name": "song",
              "type": "string"
            },
            {
              "internalType": "uint256",
              "name": "timestamp",
              "type": "uint256"
            }
          ],
          "internalType": "struct DanceRoom.Dance[]",
          "name": "",
          "type": "tuple[]"
        }
      ],
      "stateMutability": "view",
      "type": "function"
    },
    {
      "inputs": [],
      "name": "getTotalDances",
      "outputs": [
        {
          "internalType": "uint256",
          "name": "",
          "type": "uint256"
        }
      ],
      "stateMutability": "view",
      "type": "function"
    },
    {
      "inputs": [
        {
          "internalType": "address",
          "name": "",
          "type": "address"
        }
      ],
      "name": "lastDanceAt",
      "outputs": [
        {
          "internalType": "uint256",
          "name": "",
          "type": "uint256"
        }
      ],
      "stateMutability": "view",
      "type": "function"
    },
    {
      "inputs": [],
      "name": "myShakes",
      "outputs": [],
      "stateMutability": "nonpayable",
      "type": "function"
    },
    {
      "inputs": [
        {
          "internalType": "address",
          "name": "",
          "type": "address"
        }
      ],
      "name": "nDances",
      "outputs": [
        {
          "internalType": "uint256",
          "name": "",
          "type": "uint256"
        }
      ],
      "stateMutability": "view",
      "type": "function"
    },
    {
      "inputs": [
        {
          "internalType": "string",
          "name": "_song",
          "type": "string"
        }
      ],
      "name": "shake",
      "outputs": [],
      "stateMutability": "nonpayable",
      "type": "function"
    }
  ],
  "bytecode": "0x6080604052336000806101000a81548173ffffffffffffffffffffffffffffffffffffffff021916908373ffffffffffffffffffffffffffffffffffffffff16021790555060644442620000549190620001e8565b62000060919062000285565b600381905550620000956040518060600160405280602e815260200162001b9c602e91396200009b60201b62000b911760201c565b6200032c565b6200013b81604051602401620000b29190620001a8565b6040516020818303038152906040527f41304fac000000000000000000000000000000000000000000000000000000007bffffffffffffffffffffffffffffffffffffffffffffffffffffffff19166020820180517bffffffffffffffffffffffffffffffffffffffffffffffffffffffff83818316178352505050506200013e60201b60201c565b50565b60008151905060006a636f6e736f6c652e6c6f679050602083016000808483855afa5050505050565b60006200017482620001cc565b620001808185620001d7565b9350620001928185602086016200024f565b6200019d816200031b565b840191505092915050565b60006020820190508181036000830152620001c4818462000167565b905092915050565b600081519050919050565b600082825260208201905092915050565b6000620001f58262000245565b9150620002028362000245565b9250827fffffffffffffffffffffffffffffffffffffffffffffffffffffffffffffffff038211156200023a5762000239620002bd565b5b828201905092915050565b6000819050919050565b60005b838110156200026f57808201518184015260208101905062000252565b838111156200027f576000848401525b50505050565b6000620002928262000245565b91506200029f8362000245565b925082620002b257620002b1620002ec565b5b828206905092915050565b7f4e487b7100000000000000000000000000000000000000000000000000000000600052601160045260246000fd5b7f4e487b7100000000000000000000000000000000000000000000000000000000600052601260045260246000fd5b6000601f19601f8301169050919050565b611860806200033c6000396000f3fe608060405234801561001057600080fd5b50600436106100625760003560e01c80630c6723b2146100675780630f82ea791461008357806319d3401d146100b357806340893a05146100bd57806367099c16146100db578063975f2b4f146100f9575b600080fd5b610081600480360381019061007c9190610f73565b610129565b005b61009d60048036038101906100989190610f4a565b61055e565b6040516100aa9190611325565b60405180910390f35b6100bb610576565b005b6100c56109dd565b6040516100d291906111dc565b60405180910390f35b6100e3610b2e565b6040516100f09190611325565b60405180910390f35b610113600480360381019061010e9190610f4a565b610b79565b6040516101209190611325565b60405180910390f35b426014600660003373ffffffffffffffffffffffffffffffffffffffff1673ffffffffffffffffffffffffffffffffffffffff168152602001908152602001600020546101769190611437565b106101b6576040517f08c379a00000000000000000000000000000000000000000000000000000000081526004016101ad906112c5565b60405180910390fd5b42600660003373ffffffffffffffffffffffffffffffffffffffff1673ffffffffffffffffffffffffffffffffffffffff168152602001908152602001600020819055506001600560003373ffffffffffffffffffffffffffffffffffffffff1673ffffffffffffffffffffffffffffffffffffffff168152602001908152602001600020600082825461024a9190611437565b9250508190555060018060008282546102639190611437565b9250508190555061028d604051806060016040528060308152602001611789603091393383610c2a565b600760405180606001604052803373ffffffffffffffffffffffffffffffffffffffff16815260200183815260200142815250908060018154018082558091505060019003906000526020600020906003020160009091909190915060008201518160000160006101000a81548173ffffffffffffffffffffffffffffffffffffffff021916908373ffffffffffffffffffffffffffffffffffffffff160217905550602082015181600101908051906020019061034c929190610e2a565b506040820151816002015550506064600354444261036a9190611437565b6103749190611437565b61037e919061156e565b6003819055506103c56040518060400160405280601681526020017f52616e646f6d20232067656e6572617465643a20257300000000000000000000815250600354610cc9565b60326003541161050b5761040e6040518060400160405280600781526020017f257320776f6e210000000000000000000000000000000000000000000000000081525033610d65565b6000655af3107a400090504781111561045c576040517f08c379a000000000000000000000000000000000000000000000000000000000815260040161045390611305565b60405180910390fd5b60003373ffffffffffffffffffffffffffffffffffffffff1682604051610482906111c7565b60006040518083038185875af1925050503d80600081146104bf576040519150601f19603f3d011682016040523d82523d6000602084013e6104c4565b606091505b5050905080610508576040517f08c379a00000000000000000000000000000000000000000000000000000000081526004016104ff906112e5565b60405180910390fd5b50505b3373ffffffffffffffffffffffffffffffffffffffff167f23ceb9f68e95d4d7713078fbe3b8d371d41c37ca102b9aa74e9363b53294d18e4283604051610553929190611340565b60405180910390a250565b60066020528060005260406000206000915090505481565b600560003373ffffffffffffffffffffffffffffffffffffffff1673ffffffffffffffffffffffffffffffffffffffff16815260200190815260200160002054600281905550600160025414156107215760006040518060600160405280603c81526020016117b9603c9139905080600490805190602001906105fa929190610e2a565b50600860405180606001604052803373ffffffffffffffffffffffffffffffffffffffff168152602001838152602001600254815250908060018154018082558091505060019003906000526020600020906003020160009091909190915060008201518160000160006101000a81548173ffffffffffffffffffffffffffffffffffffffff021916908373ffffffffffffffffffffffffffffffffffffffff16021790555060208201518160010190805190602001906106bc929190610e2a565b506040820151816002015550503373ffffffffffffffffffffffffffffffffffffffff167f819857f415b815816236d20efd167079c3cdd81837e673c5e3c00e1a0b2b31f082600254604051610713929190611295565b60405180910390a2506109db565b60028054106108845760006040518060600160405280603681526020016117f5603691399050806004908051906020019061075d929190610e2a565b50600860405180606001604052803373ffffffffffffffffffffffffffffffffffffffff168152602001838152602001600254815250908060018154018082558091505060019003906000526020600020906003020160009091909190915060008201518160000160006101000a81548173ffffffffffffffffffffffffffffffffffffffff021916908373ffffffffffffffffffffffffffffffffffffffff160217905550602082015181600101908051906020019061081f929190610e2a565b506040820151816002015550503373ffffffffffffffffffffffffffffffffffffffff167f819857f415b815816236d20efd167079c3cdd81837e673c5e3c00e1a0b2b31f082600254604051610876929190611295565b60405180910390a2506109da565b60006040518060600160405280603b815260200161174e603b9139905080600490805190602001906108b7929190610e2a565b50600860405180606001604052803373ffffffffffffffffffffffffffffffffffffffff168152602001838152602001600254815250908060018154018082558091505060019003906000526020600020906003020160009091909190915060008201518160000160006101000a81548173ffffffffffffffffffffffffffffffffffffffff021916908373ffffffffffffffffffffffffffffffffffffffff1602179055506020820151816001019080519060200190610979929190610e2a565b506040820151816002015550503373ffffffffffffffffffffffffffffffffffffffff167f819857f415b815816236d20efd167079c3cdd81837e673c5e3c00e1a0b2b31f0826002546040516109d0929190611295565b60405180910390a2505b5b565b60606007805480602002602001604051908101604052809291908181526020016000905b82821015610b2557838290600052602060002090600302016040518060600160405290816000820160009054906101000a900473ffffffffffffffffffffffffffffffffffffffff1673ffffffffffffffffffffffffffffffffffffffff1673ffffffffffffffffffffffffffffffffffffffff168152602001600182018054610a8a9061150b565b80601f0160208091040260200160405190810160405280929190818152602001828054610ab69061150b565b8015610b035780601f10610ad857610100808354040283529160200191610b03565b820191906000526020600020905b815481529060010190602001808311610ae657829003601f168201915b5050505050815260200160028201548152505081526020019060010190610a01565b50505050905090565b6000610b716040518060400160405280601881526020017f5765206861766520256420746f74616c2044616e636573210000000000000000815250600154610cc9565b600154905090565b60056020528060005260406000206000915090505481565b610c2781604051602401610ba591906111fe565b6040516020818303038152906040527f41304fac000000000000000000000000000000000000000000000000000000007bffffffffffffffffffffffffffffffffffffffffffffffffffffffff19166020820180517bffffffffffffffffffffffffffffffffffffffffffffffffffffffff8381831617835250505050610e01565b50565b610cc4838383604051602401610c4293929190611250565b6040516020818303038152906040527fe0e9ad4f000000000000000000000000000000000000000000000000000000007bffffffffffffffffffffffffffffffffffffffffffffffffffffffff19166020820180517bffffffffffffffffffffffffffffffffffffffffffffffffffffffff8381831617835250505050610e01565b505050565b610d618282604051602401610cdf929190611295565b6040516020818303038152906040527f9710a9d0000000000000000000000000000000000000000000000000000000007bffffffffffffffffffffffffffffffffffffffffffffffffffffffff19166020820180517bffffffffffffffffffffffffffffffffffffffffffffffffffffffff8381831617835250505050610e01565b5050565b610dfd8282604051602401610d7b929190611220565b6040516020818303038152906040527f319af333000000000000000000000000000000000000000000000000000000007bffffffffffffffffffffffffffffffffffffffffffffffffffffffff19166020820180517bffffffffffffffffffffffffffffffffffffffffffffffffffffffff8381831617835250505050610e01565b5050565b60008151905060006a636f6e736f6c652e6c6f679050602083016000808483855afa5050505050565b828054610e369061150b565b90600052602060002090601f016020900481019282610e585760008555610e9f565b82601f10610e7157805160ff1916838001178555610e9f565b82800160010185558215610e9f579182015b82811115610e9e578251825591602001919060010190610e83565b5b509050610eac9190610eb0565b5090565b5b80821115610ec9576000816000905550600101610eb1565b5090565b6000610ee0610edb84611395565b611370565b905082815260208101848484011115610ef857600080fd5b610f038482856114c9565b509392505050565b600081359050610f1a81611736565b92915050565b600082601f830112610f3157600080fd5b8135610f41848260208601610ecd565b91505092915050565b600060208284031215610f5c57600080fd5b6000610f6a84828501610f0b565b91505092915050565b600060208284031215610f8557600080fd5b600082013567ffffffffffffffff811115610f9f57600080fd5b610fab84828501610f20565b91505092915050565b6000610fc08383611159565b905092915050565b610fd18161148d565b82525050565b610fe08161148d565b82525050565b6000610ff1826113d6565b610ffb81856113f9565b93508360208202850161100d856113c6565b8060005b85811015611049578484038952815161102a8582610fb4565b9450611035836113ec565b925060208a01995050600181019050611011565b50829750879550505050505092915050565b6000611066826113e1565b6110708185611415565b93506110808185602086016114d8565b6110898161165b565b840191505092915050565b600061109f826113e1565b6110a98185611426565b93506110b98185602086016114d8565b6110c28161165b565b840191505092915050565b60006110da600f83611426565b91506110e58261166c565b602082019050919050565b60006110fd60008361140a565b915061110882611695565b600082019050919050565b6000611120602783611426565b915061112b82611698565b604082019050919050565b6000611143603483611426565b915061114e826116e7565b604082019050919050565b60006060830160008301516111716000860182610fc8565b5060208301518482036020860152611189828261105b565b915050604083015161119e60408601826111a9565b508091505092915050565b6111b2816114bf565b82525050565b6111c1816114bf565b82525050565b60006111d2826110f0565b9150819050919050565b600060208201905081810360008301526111f68184610fe6565b905092915050565b600060208201905081810360008301526112188184611094565b905092915050565b6000604082019050818103600083015261123a8185611094565b90506112496020830184610fd7565b9392505050565b6000606082019050818103600083015261126a8186611094565b90506112796020830185610fd7565b818103604083015261128b8184611094565b9050949350505050565b600060408201905081810360008301526112af8185611094565b90506112be60208301846111b8565b9392505050565b600060208201905081810360008301526112de816110cd565b9050919050565b600060208201905081810360008301526112fe81611113565b9050919050565b6000602082019050818103600083015261131e81611136565b9050919050565b600060208201905061133a60008301846111b8565b92915050565b600060408201905061135560008301856111b8565b81810360208301526113678184611094565b90509392505050565b600061137a61138b565b9050611386828261153d565b919050565b6000604051905090565b600067ffffffffffffffff8211156113b0576113af61162c565b5b6113b98261165b565b9050602081019050919050565b6000819050602082019050919050565b600081519050919050565b600081519050919050565b6000602082019050919050565b600082825260208201905092915050565b600081905092915050565b600082825260208201905092915050565b600082825260208201905092915050565b6000611442826114bf565b915061144d836114bf565b9250827fffffffffffffffffffffffffffffffffffffffffffffffffffffffffffffffff038211156114825761148161159f565b5b828201905092915050565b60006114988261149f565b9050919050565b600073ffffffffffffffffffffffffffffffffffffffff82169050919050565b6000819050919050565b82818337600083830152505050565b60005b838110156114f65780820151818401526020810190506114db565b83811115611505576000848401525b50505050565b6000600282049050600182168061152357607f821691505b60208210811415611537576115366115fd565b5b50919050565b6115468261165b565b810181811067ffffffffffffffff821117156115655761156461162c565b5b80604052505050565b6000611579826114bf565b9150611584836114bf565b925082611594576115936115ce565b5b828206905092915050565b7f4e487b7100000000000000000000000000000000000000000000000000000000600052601160045260246000fd5b7f4e487b7100000000000000000000000000000000000000000000000000000000600052601260045260246000fd5b7f4e487b7100000000000000000000000000000000000000000000000000000000600052602260045260246000fd5b7f4e487b7100000000000000000000000000000000000000000000000000000000600052604160045260246000fd5b6000601f19601f8301169050919050565b7f77616974203230207365636f6e64730000000000000000000000000000000000600082015250565b50565b7f4661696c656420746f2077697468647261772065746865722066726f6d20636f60008201527f6e74726163742e00000000000000000000000000000000000000000000000000602082015250565b7f547279696e6720746f207769746864726177206d6f7265206d6f6e657920746860008201527f61742074686520636f6e7472616374206861732e000000000000000000000000602082015250565b61173f8161148d565b811461174a57600080fd5b5056fe596f7520686176656e2774207368616b656e206974207965742c20646f6e277420626520617368616d6564206c65742773207368616b6520697421257320686173207368616b6564206c697374656e696e6720746f2074686520736f6e672063616c6c65643a2025732021596f752068617665207368616b656420796f757220626f6479206f6e6c7920312074696d6521204c65742773207368616b6520697420616761696e214f4d472120596f75206172652061206269672064616e6365722120596f752068617665207368616b656420796f757220626f64793a20a26469706673582212206ada92d74ceb680ca44fdf88d0445d9cdacfd0f611fd949b3641de653ed84fd964736f6c634300080400335475747a207475747a2c204920616d20612044616e6365526f6f6d2c20636f6d652064616e6365206f6e206d6521",
  "linkReferences": {},
  "deployedLinkReferences": {}
}